S00C0000436F64652E737265639D
S11300000C942A000C9449000C9447000C9447006B
S11300100C9447000C9447000C9447000C94470040
S11300200C9447000C9447000C9447000C94470030
S11300300C9447000C9447000C9447000C94470020
S11300400C9447000C9447000C9447000C94470010
S11300500C94470011241FBECFE5D8E0DEBFCDBF0E
S113006010E0A0E6B0E0E8EFF1E002C005900D92E8
S1130070A836B107D9F720E0A8E6B0E001C01D9288
S1130080AA36B207E1F70E9469000C94FA000C94B6
S113009000001F920F920FB60F9211242F938F938B
S11300A09F93809168009091690021E0822790934A
S11300B069008093680083ED90E30197F1F700C035
S11300C000009F918F912F910F900FBE0F901F9062
S11300D01895CF93DF93CDB7DEB728970FB6F89472
S11300E0DEBF0FBECDBF8FEF8ABB87BB11BA88E0DE
S11300F0E0E6F0E0DE01119601900D928A95E1F7B9
S113010080E48BBF82E085BF789440E050E080912A
S1130110680090916900892B51F160E070E059C04A
S1130120C901841B950B089687709078992324F451
S11301300197886F9F6F019661E070E0DB0102C058
S1130140AA0FBB1F8A95E2F7ABBBE1E0F0E0EC0F2E
S1130150FD1FE20FF31F8081809588BBE1EEF4E080
S11301603197F1F700C000002F5F3F4F02C020E03D
S113017030E028303105A4F2CACFC901841B950BA5
S1130180089687709078992324F40197886F9F6F5D
S11301900196E1E0F0E0DF0102C0AA0FBB1F8A95DF
S11301A0E2F7ABBBEC0FFD1FE20FF31F80818095DC
S11301B088BBE1EEF4E03197F1F700C000002F5F57
S11301C03F4F02C020E030E028303105B4F26F5FC9
S11301D07F4F6A307105B4F34F5F5F4F47705078BB
S11301E055230CF094CF41505109486F5F6F4F5F16
S10B01F05F4F8DCFF894FFCF9F
S10B01F800FBFBDBDBDFDF0091
S9030000FC
